:020000040000fa
:020000040040ba
:10000000f0ff45200503400037134000391340003e
:100010003d1340003f13400041134000000000002a
:100020000000000000000000000000003513400048
:100030003b13400000000000351340003513400022
:100040003513400035134000351340003513400090
:100050003513400035134000351340003513400080
:10006000f906400000000000351340003513400041
:10007000351340003513400089014000351340001e
:100080003513400035134000351340003513400050
:1000900035134000351340003513400095114000e2
:1000a0003513400035134000351340003513400030
:1000b0003513400035134000351340003513400020
:1000c000351340003513400035134000510a4000fd
:1000d0003513400035134000351340003513400000
:1000e00035134000351340003513400035134000f0
:1000f000cd05400035134000351340003513400056
:1001000035134000351340003513400035134000cf
:100110003513400000000000000000000000000057
:1001200035134000351340003513400035134000af
:100130003513400035134000000000003513400027
:10014000351340003513400035134000351340008f
:10015000351340003513400035134000351340007f
:08016000351340003513400087
:020000040000fa
:020000040040ba
:10016800f8b500bff8bc08bc9e467047fd0f4000bc
:10017800f8b500bff8bc08bc9e467047d90f4000d0
:020000040000fa
:020000040040ba
:10018800f8b55a4b5b6913f0e0030ad1574b5b692a
:1001980013f0010f20d1554b5b6913f0020f67d1a3
:1001a800f8bddbb2524a82f83d30504b4ff48072b2
:1001b8001a605b6913f0010f05d04c4b9a695a69b4
:1001c80012f0010ffad14a4b1b6a002bded0484ac5
:1001d800516a02209847d9e7444e454c46e0226ac6
:1001e800002a31d0616a38469047a36a0133226bee
:1001f800934228bf002327e0a16a3e48425430e0da
:1002080000f0e4ff236a002b30d094f83c2032b190
:10021800a26b90422ad3616a0020984726e0a26b1d
:10022800904223d1616a002098471fe0736913f058
:10023800010fb0d0b569a36a0133226b934228bf7e
:100248000023e26a9a42cad0e26a9a42eed0c5f323
:100258000802716811f4003fced0a06a254921f840
:100268001020a36294f83430002bc9d10127dde7b0
:100278001e4d1f4c204e6b6913f0020f90d0e3689f
:10028800a26893422dd06a6812f4003f03f101027c
:1002980014bf36f81330f35c2169914298bf0022ed
:1002a800e2606a6812f4003f14bfc3f30803dbb2cc
:1002b800eb61237d002bded000f0e2ff2368002bea
:1002c800d9d0227f32b1a2699042d4d36168032089
:1002d8009847d0e7a2699042cdd16168032098473a
:1002e800c9e7024b0222da605ae700bf00800240e9
:0c02f800d0044020000440200000402002
:020000040000fa
:020000040040ba
:1003040008b54f4b98474f4b9847eff3108172b69f
:100314004d4ad2f8883043f47003c2f88830bff3f2
:100324004f8fbff36f8f01b962b6484b484a5a608a
:100334009a6812f0010ffbd0444bdb6813f4c07fc2
:1003440013d0444b0c221a60404b434a5a609a68bb
:1003540012f0010ffbd03d4b404a5a609a6812f0ec
:10036400010ffbd03e4b3f4a1a60bff34f8fbff3e0
:100374006f8f354cd4f8903223f00103c4f89032d7
:10038400d4f8943223f00103c4f89432bff34f8fae
:10039400bff36f8f00f0caff334b23f07f03a360da
:1003a400324b9847636913f4003f12d1bff34f8f68
:1003b400bff36f8f0022c4f85022bff34f8fbff3f7
:1003c4006f8f626942f400326261bff34f8fbff3f3
:1003d4006f8f1d4b5b6913f4803f29d11a4b0022a8
:1003e400c3f88420bff34f8fd3f88030c3f3c9061a
:1003f400c3f34e335a0143f6e075134802ea050489
:10040400334644ea8371c0f86012013bb3f1ff3f05
:10041400f7d1203a12f1200ff0d1bff34f8f0a4adf
:10042400536943f480335361bff34f8fbff36f8f2e
:100434000f4b98470f4b984700f050fffee700bf63
:10044400431340004313400000ed00e0000c0e4055
:100454000d00005a080640200c08005a0c07005ae8
:1004640000180e40010000a500004000bd0d400032
:08047400431340004313400054
:020000040000fa
:020000040040ba
:10047c00800540201c00000000000000d405402036
:10048c0008000000000000009c0540201c0000003b
:10049c0000000000b8054020100000000000000023
:1004ac00dc0540200800000000000000e4054020ae
:1004bc000800000000000000ec05402008000000cf
:1004cc00000000000002402080000000000000003e
:1004dc008002402080000000000000001005402039
:1004ec0038000000000000000003402080000000e5
:1004fc00000000008003402080000000000000008d
:10050c004805402038000000000000000004402096
:10051c0080000000000000000000402000020000ed
:10052c0000000000d004402040000000000000004b
:10053c00c80540200c0000000000000014064020fc
:10054c000100000000000000150640200100000022
:10055c0000000000f405402008000000000000002e
:10056c001606402001000000000000000406402098
:10057c000400000000000000fc0540200800000002
:10058c0000000000080640200400000000000000ed
:10059c000c064020040000000000000080044020f5
:1005ac005000000000000000100640200400000075
:1005bc00000000000000000000000000444444441f
:020000040000fa
:020000040040ba
:1005cc00f8b5464b5b6913f0e00f09d0434be122c1
:1005dc00da60434bdb691bb1414a116a0220984730
:1005ec003e4b5b6913f0010f05d13c4b5b6913f07b
:1005fc00020f3dd1f8bd394d394c37e0e36913b1e9
:10060c00216a38469847636a0133802b28bf002340
:10061c0021e000f00bfee36943b394f8342032b1cf
:10062c00226b904222d3216a002098471ee0226b55
:10063c0090421bd1216a0020984717e06b6913f098
:10064c00010fd2d0ae69636a0133802b28bf00231f
:10065c00a26a9a42d2d0a26a9a42efd0626a214927
:10066c008e54636294f82c30002bd2d10127e5e72d
:10067c001a4d1b4c1c4e19e000f033fe2368abb135
:10068c00227e32b16269904210d361680320984790
:10069c000ce06269904209d161680320984705e03b
:1006ac00ea691343eb61237c002be5d16b6913f0f2
:1006bc00020f9fd0e268a3689a4209d0e3685a1ce3
:1006cc00e260f35ce2687f2aead90022e260e7e7a5
:1006dc00024b4ff40072da608ce700bf001a0e4038
:0c06ec0010054020000240208002402049
:020000040000fa
:020000040040ba
:1006f800f8b5464b5b6913f0e00f09d0434be12294
:10070800da60434bdb691bb1414a116a0220984702
:100718003e4b5b6913f0010f05d13c4b5b6913f04d
:10072800020f3dd1f8bd394d394c37e0e36913b1bb
:10073800216a38469847636a0133802b28bf002313
:1007480021e000f089fde36943b394f8342032b125
:10075800226b904222d3216a002098471ee0226b28
:1007680090421bd1216a0020984717e06b6913f06b
:10077800010fd2d0ae69636a0133802b28bf0023f2
:10078800a26a9a42d2d0a26a9a42efd0626a2149fa
:100798008e54636294f82c30002bd2d10127e5e700
:1007a8001a4d1b4c1c4e19e000f0a3fd2368abb199
:1007b800227e32b16269904210d361680320984763
:1007c8000ce06269904209d161680320984705e00e
:1007d800ea691343eb61237c002be5d16b6913f0c5
:1007e800020f9fd0e268a3689a4209d0e3685a1cb6
:1007f800e260f35ce2687f2aead90022e260e7e778
:10080800024b4ff40072da608ce700bf000a0e401a
:0c081800480540200003402080034020e1
:020000040000fa
:020000040040ba
:100824003d4a116a3d4b0b43136213469a6e12f014
:10083400010ffbd0384a116a394b0b43136213463c
:100844009a6e12f4803ffbd0334a116a354b0b4346
:10085400136213469a6e12f4003ffbd02e490b6ac2
:10086400314a1a40314b13430b620b469a6e12f411
:10087400003ffbd0284b2e4a9a629a6e12f0020f68
:10088400fbd02c4b00221a6303f500734ff4710262
:10089400da619a6e12f0400ffbd01f4a136b43f4d7
:1008a4000053136313469a6e12f0080ffbd01a4ad2
:1008b400136b23f07003136313469a6e12f0080f40
:1008c400fbd0154a136b23f4407343f48073136312
:1008d40013469a6e12f0080ffbd00f4a136b23f0e5
:1008e400030343f00203136313469a6e12f0080fd6
:1008f400fbd0094b4ff400525a60b32159651a607a
:100904009a6e12f4005ffbd0034b0b4a1a6141f25a
:100914002812c3f80021704700060e4001ff37007b
:1009240000003701080037008fffc8ff20003700a0
:0c093400013f182000040e40005d8320ed
:020000040000fa
:020000040040ba
:1009400010b4404b0022c3f81421d3f8141141f025
:100950001001c3f814113c490a6760234b6703f583
:1009600000134b60394b0b604ff0ff334b656ff05a
:1009700040000866402048666ff02000c1f89000f3
:100980002020c1f89400c1f8a0300a614b618a634d
:10099000c1f8182101f500711020086748671c2074
:1009a00048606ff01c0008604b650b66c1f8903022
:1009b000c1f8a0300a614b618a63c1f8182101f5c2
:1009c00000710b604b650b66c1f89030c1f8a03028
:1009d0004ff4807008616ff480744c618863c1f8d3
:1009e000182101f500710a674ff0c0604867486040
:1009f0006ff0c06008604b656ff0806008664ff074
:100a0000806048666ff00070c1f890004ff0007091
:100a1000c1f89400c1f8a0300a614b618a63c1f843
:100a2000182101f500710b604b650b66c1f8903021
:100a3000c1f8a0300a614b618a63c1f818215df8e2
:100a4000044b704700800840000e0e409fffdfff00
:020000040000fa
:020000040040ba
:100a500010b5264b1c6d264b234043b1234a13652a
:100a6000244b1b681bb1234a51682046984714f059
:100a7000010f0cd01d4b01221a65d3f8a4001e4ba8
:100a80001b6823b11c4a516800f07f00984714f09e
:100a9000100f0cd0154b10221a65d3f8b400164b6a
:100aa0009b6823b1144ad16800f07f00984714f482
:100ab000006f09d00d4b4ff400621a650f4b1b6895
:100ac00013b10e4a5068984714f4805f0dd0074b5d
:100ad0004ff480521a65d3f8f400094b1b6823b118
:100ae000074a516800f03f00984710bd00000340de
:100af000eee7ffffd4054020b8054020e405402084
:040b0000dc054020b0
:020000040000fa
:020000040040ba
:100b04002de9f041002945d08c46234b1e69002471
:100b1400224d1a46dff888e00fe030f81470d5f85b
:100b2400048018f4003f14bf2ef811700ef8017001
:100b34009360631c013463452ad26b6813f4003359
:100b440010d0d76891684b1cb34228bf00239f4242
:100b5400e3d100f02ffb10b1104b02229a60204623
:100b6400bde8f081d2f80c809768791cb14228bfa7
:100b740019468845edd0035dd5f8048018f4003f8c
:100b840014bf2ef817300ef807309160631cd1e7bc
:100b94001c46dee70c46dce7d0044020008002401f
:040ba40000004020ed
:020000040000fa
:020000040040ba
:100ba800194ad16821f4e0610904090c174b0b4379
:100bb800d360bff35f8f62b6154be02183f808134b
:100bc8004ff48070186083f80e134ff4804018605b
:100bd80083f817134ff40000186083f823130820d4
:100be800586083f82c134ff480515960536a43f4ca
:100bf80080235362536943f010035361536a43f4eb
:100c080000335362704700bf00ed00e00000fa05b2
:040c180000e100e017
:020000040000fa
:020000040040ba
:100c1c0018494ff486730b6050230b604ff40c6330
:100c2c004b6051230b62144b00221a629a62da62f7
:100c3c0083f8342083f83c209a6383f83d201a60b3
:100c4c009a60da601a751a779a614b6813f4003f50
:100c5c0009d0094b40221a634ff480721a61054b7c
:100c6c00e1229a607047044b80221a634ff40072a1
:0c0c7c001a61f4e700800240d004402020
:020000040000fa
:020000040040ba
:100c880010b500f019fbfff7c9fdfff755fe4ff44b
:100c98000043124a5360b03a536000f005fb00f07d
:100ca80061fa00f02ff900f007f900f06ff900f091
:100cb8004bf900f01bf8fff7adff0949002000f0e1
:100cc80093fa084c20600849002000f0cdf86060d5
:100cd80000f034fbfff764ff10bd00bf00190e40a1
:0c0ce80028134000fc05402008134000c9
:020000040000fa
:020000040040ba
:100cf400154b01229a611a46936913f0010ffbd038
:100d0400114b9a6942f002029a61104ada61282270
:100d1400c3f880209a6922f001029a611a46936905
:100d240013f0010ffbd1084a002393650121d1651b
:100d340007495165074a136053609360d360136198
:100d440053619361704700bf00000340040d01002c
:080d5400ddddc23f9c054020db
:020000040000fa
:020000040040ba
:100d5c0070b5144b144a0021934206d3134a002554
:100d6c00d2e9003123b919b970bd03f8011bf3e7bf
:100d7c00946858180c3294b11446834208d111f07f
:100d8c00030318bf012303eb910102eb8102e7e798
:100d9c0014f8016b03f8016befe703f8015b834276
:100dac00fbd1dde700004020000040207c04400027
:020000040000fa
:020000040040ba
:100dbc000e4a38b5002313600d4a0e4c13600e4ad0
:100dcc000e4d13600e4a13600e4a13600e4a5362a6
:100ddc0013610123936000f0b1fa00f0affaac425a
:100dec0000d338bd54f8043b9847f8e71006402070
:100dfc008c0440207401400088044020780140009d
:0c0e0c008004402084044020900440201a
:020000040000fa
:020000040040ba
:100e1800f0b4124ad36a956a0022114fdff844c031
:100e28000e4e08e01cf8034084540133346b9c4296
:100e380098bf00230132ab420bd0914209d97c689c
:100e480014f4003feed03cf8134020f81240013370
:100e5800ece70249cb621046f0bc7047d004402052
:080e680000800240000440205c
:020000040000fa
:020000040040ba
:100e7000104b1b7823b901230f4a13700d4a1370ce
:100e8000a0b999b10d4b93f9003013b14ff0ff3079
:100e9000704710b58868094b98604a685a60022408
:100ea0001c70536809689847002010bd4ff0ff3050
:100eb000704700bf1506402014064020c80540209a
:020000040000fa
:020000040040ba
:100ec0000f4b012119600f4a5a600f4a9a604ff484
:100ed0004372c3f8942000225a655a664ff4007298
:100ee000da665966da6603215966da6605215966bb
:100ef000da6606215966da666b225a61704700bfce
:0c0f0000004006400007842f000005039d
:020000040000fa
:020000040040ba
:100f0c000d4b01221a600d4a5a600d4a9a604ff43b
:100f1c004372c3f8942000225a655a664ff400724b
:100f2c00da6608215966da660a215966da6640f2f1
:100f3c0001525a61704700bf00c003400007842f64
:040f4c000000050399
:020000040000fa
:020000040040ba
:100f50000e494ff486730b6050230b604ff400630f
:100f60004b6051230b620a4b0022da615a629a628b
:100f700083f82c2083f834201a631a609a60da60b0
:100f80001a741a765a61e1238b607047001a0e407a
:040f900010054020e8
:020000040000fa
:020000040040ba
:100f94000e494ff486730b6050230b604ff40063cb
:100fa4004b6051230b620a4b0022da615a629a6247
:100fb40083f82c2083f834201a631a609a60da606c
:100fc4001a741a765a61e1238b607047000a0e4046
:040fd400480540206c
:020000040000fa
:020000040040ba
:100fd80010b5054c227832b9044b13b10448aff36d
:100fe80000800123237010bd800540200000000010
:100ff8000000000008b5034b1bb103490348aff3d9
:10100800008008bd000000008405402000000000aa
:020000040000fa
:020000040040ba
:1010180098b90b460a494979012902d04ff0ff30a7
:10102800704710b511461846054c002363712368b4
:101038001b6898470123637110bd4ff0ff3070475c
:04104800f40540204b
:020000040000fa
:020000040040ba
:10104c0098b90b460a494979012902d04ff0ff3073
:10105c00704710b511461846054c00236371236880
:10106c00db6898470123637110bd4ff0ff30704768
:04107c00f405402017
:020000040000fa
:020000040040ba
:1010800080b90a4b5b79012b02d04ff0ff307047db
:1010900010b5064c0023637123681b699847012330
:1010a000637110bd4ff0ff30704700bff405402062
:020000040000fa
:020000040040ba
:1010b00080b90a4b5b79012b02d04ff0ff307047ab
:1010c00010b5064c0023637123685b6998470123c0
:1010d000637110bd4ff0ff30704700bff405402032
:020000040000fa
:020000040040ba
:1010e00080b90a4b5b79012b02d04ff0ff3070477b
:1010f00010b5064c0023637123689b689847012351
:10110000637110bd4ff0ff30704700bff405402001
:020000040000fa
:020000040040ba
:1011100080b90a4b5b79012b02d04ff0ff3070474a
:1011200010b5064c0023637123685b689847012360
:10113000637110bd4ff0ff30704700bff4054020d1
:020000040000fa
:020000040040ba
:10114000000300009d1240001910400011114000e2
:10115000e11040004d10400081104000b1104000ef
:0c11600007134000d1124000251340008e
:020000040000fa
:020000040040ba
:10116c00074b4ff480721a634ff440425a604ff6ab
:10117c00ff72da6110225a62024b00221a60704729
:08118c0000c00040ec0540200a
:020000040000fa
:020000040040ba
:1011940008b5064b186a10f0140005d0044b1b6800
:1011a40013b1034a5168984708bd00bf00c000400e
:0411b400ec054020e6
:020000040000fa
:020000040040ba
:1011b800054bd8689b68984201d8181a7047024aac
:0c11c80012691344181a7047d00440202c
:020000040000fa
:020000040040ba
:1011d400054bd86a9b6a984201d8181a7047024a8c
:0c11e400126b1344181a7047d00440200e
:020000040000fa
:020000040040ba
:1011f0004a78044b1a70044b4a885a8002221a70ab
:0c12000000207047160640200406402025
:020000040000fa
:020000040040ba
:10120c00190e4000d511400075124000050b40002e
:08121c00151340008912400087
:020000040000fa
:020000040040ba
:10122400034bd8689b68984288bf8033181a70476c
:041234001005402041
:020000040000fa
:020000040040ba
:10123800034a536a906a834238bf8033181a70474a
:04124800100540202d
:020000040000fa
:020000040040ba
:10124c00034bd8689b68984288bf8033181a704744
:04125c0048054020e1
:020000040000fa
:020000040040ba
:10126000034a536a906a834238bf8033181a704722
:0412700048054020cd
:020000040000fa
:020000040040ba
:1012740010b5034b1c6bfff7abff013c201a10bdec
:04128400d004402032
:020000040000fa
:020000040040ba
:1012880010b5034b1c69fff793ff013c201a10bdf2
:04129800d00440201e
:020000040000fa
:020000040040ba
:10129c0028b9034b01225a71096819601a717047f9
:0412ac00f4054020e5
:020000040000fa
:020000040040ba
:1012b000024b4ff480721a63704700bf00120e4059
:020000040000fa
:020000040040ba
:1012c000014b024a1a607047000c0e4000060004f1
:020000040000fa
:020000040040ba
:1012d00010b9024b1879704703207047f40540207d
:020000040000fa
:020000040040ba
:0e12e00008b50020fff7d0fc00f018f8fce77e
:020000040000fa
:020000040040ba
:0c12ee0008b5fff798ffc0f17f0008bdb5
:020000040000fa
:020000040040ba
:0c12fa0008b5fff7a6ffc0f17f0008bd9b
:020000040000fa
:020000040040ba
:0213060070472e
:020000040000fa
:020000040040ba
:0c1308002c1340004011400000000000c9
:020000040000fa
:020000040040ba
:0813140008b5fff74fff08bd0b
:020000040000fa
:020000040040ba
:08131c0008b500f012f808bd4d
:020000040000fa
:020000040040ba
:0413240001207047ed
:020000040000fa
:020000040040ba
:0413280000040000bd
:020000040000fa
:020000040040ba
:04132c000c1240005f
:020000040000fa
:020000040040ba
:04133000fff714bdf2
:020000040000fa
:020000040040ba
:02133400fee7d2
:020000040000fa
:020000040040ba
:02133600fee7d0
:020000040000fa
:020000040040ba
:02133800fee7ce
:020000040000fa
:020000040040ba
:02133a00fee7cc
:020000040000fa
:020000040040ba
:02133c00fee7ca
:020000040000fa
:020000040040ba
:02133e00fee7c8
:020000040000fa
:020000040040ba
:02134000fee7c6
:020000040000fa
:020000040040ba
:021342007047f2
:020000040000fa
:020000040040ba
:021344007047f0
:020000040000fa
:020000040040ba
:021346007047ee
:020000040000fa
:020000040040ba
:021348007047ec
:020000040000fa
:02000004d0002a
:0400000002000000fa
:00000001FF
