:020000040000fa
:020000040040ba
:10000000f0ff4520e91340003b2240000b26400052
:100010009b2b4000eb2b4000172e400000000000ff
:10002000000000000000000000000000431a400033
:100030003f27400000000000431a4000431a4000e0
:10004000431a4000431a4000431a4000431a40003c
:10005000431a4000431a4000431a4000431a40002c
:10006000f917400000000000431a4000431a400006
:10007000431a4000431a40006d124000431a4000ea
:10008000431a4000431a4000431a4000431a4000fc
:10009000431a4000431a4000431a4000ed2b400031
:1000a000431a4000431a4000431a4000431a4000dc
:1000b000431a4000431a4000431a4000431a4000cc
:1000c000431a4000431a4000431a4000351d4000c7
:1000d000431a4000431a4000431a4000431a4000ac
:1000e000431a4000431a4000431a4000431a40009c
:1000f000cd164000431a4000431a4000431a400006
:10010000431a4000431a4000431a4000431a40007b
:10011000431a400000000000000000000000000042
:10012000431a4000431a4000431a4000431a40005b
:10013000431a4000431a400000000000431a4000e8
:10014000431a4000431a4000431a4000431a40003b
:10015000431a4000431a4000431a4000431a40002b
:08016000431a4000431a40005d
:020000040000fa
:020000040040ba
:10016800f8b500bff8bc08bc9e467047312840006f
:10017800f8b500bff8bc08bc9e4670470d28400083
:020000040000fa
:020000040040ba
:08018800d40a00000100000090
:020000040000fa
:020000040040ba
:100190002de9f04f2ded0c8b8db092ed008b07907b
:1001a0001846d1e90053b5eec08b0393f1ee10fa77
:1001b0000b698e680693cc6806d469072fd415f0b6
:1001c00008072ed0202302e02d23b1ee488b2370a8
:1001d000721e012718ee903adff884b318ee108ae9
:1001e00023f000494ff0000ad94508bfd0451ad185
:1001f0004138192894bfd649d649e01902f02afea1
:10020000d44802f0cffd00950246334621460798b8
:1002100001f0e6fe0db0bdec0c8bbde8f08f2b239a
:10022000d5e73246d6e7cb45a0f1410308bfc2452a
:10023000049309d2192b04eb070094bfc649c749a0
:1002400002f008fec548dce7049bb5ee408b4ff09a
:10025000300c1a2b07f1010104f807c0b7ee009b20
:1002600034bf4ff0580c4ff0780cf1ee10fa04f850
:1002700001c007f10207a2f1020a4ff0000b40f0a3
:10028000ee80b0ee49bbb0ee48cb039b9fedaadbfe
:10029000002bacbf99464ff018094ff00008b0eea4
:1002a0004dab8cee0b0b089001f0e2fc08f1010362
:1002b0000593039b00ee4bcb002b2bee0dbb089858
:1002c00004dab5ee40cbf1ee10fa05d0c14500f3eb
:1002d000e98009f101030593b2ee007b2bee077b69
:1002e000b4eec7cbf1ee10fa00f1df80b4ee47cbed
:1002f000f1ee10fa09d1bdeec00b9fed916b10ee3f
:10030000103a13f0010f06fe077b38ee078b18ee4c
:10031000903a23f00049924b18ee108a002299453a
:1003200008bf90453ff464af069b0020053bb846ec
:10033000014681460893089b4345424620d988eef2
:10034000090bcde90a01099201f092fcfdeec07b98
:10035000b0ee40bb17ee903adde909200b99002b77
:1003600040f0a680b9f1000f00f0a2800130059b9b
:100370000bee498b09f101094b4529ee0a9bdad1b5
:10038000e1b9002800f0f280039b002b40f3ee80df
:10039000ea0700f1eb802e2200eb080104f80820a8
:1003a000214404eb08024ff0300c02f801cf9142d7
:1003b000fbd18044c04308f101088244069b002120
:1003c0005a1e069b04f808108b45a15404eb080044
:1003d000bcbfcbf1000b0121c3f102094ff00a0ca5
:1003e000bbf1000f40f09b8009eb020ebef1010f44
:1003f00000f09580049b02f1ff3c002914bf2d21e1
:100400002b21023a1a2b04f80c1034bf4ff0500c79
:100410004ff0700c904504eb020104f802c001dac1
:1004200002f018fd05f00302022a12d1aaf1020a15
:10043000baf1000f0ddd204602f0b4fc04eb0a0215
:10044000b84280f28f8052463021e01902f0a2fcbf
:1004500000262046d5e60bf1010bb0ee479b39eea6
:10046000097bb4eec78bf1ee10faf4d5b6ee007b43
:10047000b0ee475b9fed346bb4eec98bf1ee10fa32
:100480007ff5ffae29ee074bb5ee404bf1ee10facb
:1004900004bf29ee069b28ee068b29ee059b0bf187
:1004a000ff3be9e7ddf81480fbe69fed257b2ce7b9
:1004b00049b9b9f1000f06d02e21a15408f1010865
:1004c0000af1ff3a0121221804eb080e424403e02e
:1004d0004ff0300c0ef801cb9645f9d1092b08eb03
:1004e0000002aaeb000ad4bf03f1300003f1570069
:1004f000049b192b0cd840f0200cacf1610cbcf122
:10050000190f05d8cde9091202f072fcdde90912d4
:10051000a05402f101080af1ff3a002027e7bbfbd3
:10052000fcfe013a0cfb1ebb0bf1300b04f802b0d1
:100530000af1ff3af34653e7000000000000b03f25
:100540000000000000000000000000000000504318
:10055000b42d4000b82d4000bc2d4000c02d4000ff
:100560000000f07f215c1154013869e7eb067ff54c
:1005700025af2e2204f8082008f101081ee700bf6d
:020000040000fa
:020000040040ba
:100580002de9f04f2ded0a8b92ed00ab8fb0b5ee5b
:10059000c0ab05938b680493f1ee10fa0b690890d9
:1005a0008a46d1e900750993cc6807d47a0736d416
:1005b00017f00803039334d0202302e02d23b1ee7b
:1005c0004aab2370049b03f1ff3b012303931aee14
:1005d000903adff850931aee100a23f000414ff0e2
:1005e0000008494508bf40451ed1059b413b192bda
:1005f000039b94bfc649c7492344184602f02afc0e
:10060000204602f0cffb00970246049b0898214643
:1006100001f0e6fc0fb0bdec0a8bbde8f08f2b2398
:10062000cfe7ddf810b0d2e7894508bf804509d291
:10063000059b413b192b039b94bfb749b749234402
:100640001846dbe7b5ee40abf1ee10fab2ee04cba4
:10065000b7ee009b4ff0000818d1059802f0c1fbdf
:10066000002dc0b2c0f27a8167282dd1002d08bfbd
:10067000012518f1040f02dba845c0f266814ff096
:10068000650933e008f10108b0ee479b29ee0c7bc9
:10069000b4eeca7bf1ee10faf4dd0023a04a9fed20
:1006a000987b0be0904505da23b92aee07ab29eedb
:1006b000079b012308f1ff3889ee0c9bb4eec9ab10
:1006c000f1ee10faeed4c8e78146b9f1660f05f1f4
:1006d00001050bd1b8f1000f03dab7ee009b4ff024
:1006e0000008672818bf45444ff066090023b0eea4
:1006f000498bb0ee4abb8bee080bcde9060301f047
:10070000b7fa079b90ee08bbfdeec07b01339d421c
:1007100017ee902ab1ee4bbb88ee0c8b0698ead10f
:10072000b1ee047b28ee078bb4eec8bbf1ee10faf5
:100730007bd4b4ee48bbf1ee10fa05d19fed726b9d
:1007400012f0010f06fe088b3aee088b29ee0cab77
:10075000b4eec8abf1ee10fa6ad8b9f1660f08f141
:10076000010867d1013541464b1b0a93002207f06f
:100770001003039d06920c930a9b994240f08d80d2
:10078000069b002b00f0b4800022b9f1650f04eb4a
:10079000050062552dd1099b0999013b9045e25412
:1007a000c1f1030ebcbfc8f1000801220a21b8f153
:1007b000000f40f0b9800eeb030cbcf1000f00f30a
:1007c000b380002a03f1ff3114bf2d222b22625483
:1007d000059a413a023b192a98bf4ff045099d42bc
:1007e00004eb030104f80390abf1020b01da02f011
:1007f00031fb07f00303022b7ff402afbbf1000fc4
:100800007ff7feae204602f0cdfa04eb0b03039a0d
:10081000824240f39680039b234418465a46302177
:1008200002f0b8fa00230493eae69fed378b8be7da
:10083000b0ee49abb9f1650f14bf4146002193e713
:10084000069b53b9002908da4ff02e0c012304f857
:1008500006c001350bf1ff3b0693631904eb020c54
:1008600007930ceb05030b9305e0079b4ff0300c4f
:1008700003f801cb07930b9b079eb342f5d102eb24
:10088000050cabeb020b0ef130030cf1010504f883
:100890000c300bf1ff3b002222e0daf81030053b70
:1008a000ab422e467ff66caf88ee0a0b0d900b9292
:1008b000079101f0ddf9fdeec07b0c9a07990d98c8
:1008c00017ee903a092b17ee90eaa8bf4ff0090ee9
:1008d00013430b9ab4d16728b2d10029bdda013293
:1008e0009aee008b0139b1ee488b8aee0cab43e7f0
:1008f000fb0642bf2e236355013545e7aff3008069
:100900000000000000005043000000000000000054
:10091000c42d4000c82d4000cc2d4000d02d4000fb
:10092000d4feffff0000f07fb8fbf1fc013b01fbb0
:100930001c8808f1300804f803800bf1ff3be04607
:1009400035e7225c1a54013861e7b8f1000fbff6b1
:10095000cbae4ff06609b8e606258ae66728fbd0dd
:0809600081460625b1e600bf47
:020000040000fa
:020000040040ba
:100968002de9f04fadb00027dff8e4a20391064669
:100978001546b8464ff0ff3903990b78002b00f065
:10098800f9800cabcde907890a938023cdf8248040
:100998000b9300240b5d0bb1252b26d134b12246d5
:1009a800304602f00bf9039b23440393039b1a7808
:1009b800252a40f0d78003f1010bcdf80cb003983d
:1009c80003782b2b1ad025d8202b1bd0232b1dd0f6
:1009d8002a2b27d001f08cfe0990039b1a78303a15
:1009e800092a2ed801330393f7e70134d2e7079b8e
:1009f80043f00103013007930390e0e7079b43f0be
:100a08000403f7e7079b43f00803f3e7079b43f06a
:100a18001003efe72d2bead0302bd9d1079b43f0f9
:100a28000203e7e72b681a1d1b682a600130002bb8
:100a38000390099305da079a5b4282f00102079254
:100a48000993079bda0744bf23f002030793039b2c
:100a58001a782e2a0dd1581ccdf8208003905a7888
:100a68002a2a25d1023303932b681a1d1b682a6092
:100a7800089303a801f0e6fe039b0190187802f0a2
:100a8800acf96928019979d032dc632800f0c68076
:100a980019dc252800f0d080612853d025238df853
:100aa8001030cdf80cb0cdf81c80cde90898c0e026
:100ab80001f01efe0890039b1a78303a092ad8d80c
:100ac80001330393f7e7642858d06728e6dc2a4601
:100ad80004a802f049f8002800f09c80039b5a1ce7
:100ae80003921b7804aa07a93046fff745fd38e0b2
:100af800702873d015dc6e2800f087806f28cdd160
:100b08002b46002204a801f06bf9002800f082802f
:100b1800039b04aa013307a93046039301f050fb55
:100b28001fe075283ad0782848d07328b6d1802994
:100b380070d1039b2a6801330393131d2b6012683d
:100b480000235be02a4604a802f00ef8002861d0d2
:100b5800039b5a1c03921b7804aa07a93046fff787
:100b680013fb04443c44a7426edd384b4f221a6005
:100b78004ff0ff3738462db0bde8f08f2b460122e5
:100b880004a801f02df9002844d0039b04aa0133de
:100b980007a93046039301f079f9e2e72b460022d2
:100ba80004a801f01df9002834d0039b04aa0133de
:100bb80007a93046039301f0f9fcd2e72b4600223f
:100bc80004a801f00df928b3039b5a1c03921b7863
:100bd80004aa07a9304600f0a1fec2e72b4600226e
:100be800f02104a801f0fcf8a0b1039b01330393a2
:100bf800dde90423134306d10023524607a93046f2
:100c080001f0a8fcade77823e2e72b463a1904a8df
:100c180001f022fa039b01330393a3e78029f9d15a
:100c2800039b013303932b681a1d1b682a608df8f8
:100c38001030012304aae1e78029ebd1039b8df84a
:100c4800100001330393f4e7274695e6f0064020a9
:040c5800962c400096
:020000040000fa
:020000040040ba
:100c5c002de9f04f099f154604468e461e46002b83
:100c6c0040f0cc808a42b2fa82fc4cd9bcf1000f25
:100c7c000bd0ccf1200801fa0cfe20fa08f802fa8d
:100c8c000cf548ea0e0e00fa0cf44fea15491ffa5f
:100c9c0085f8befbf9fa210c09fb1ae30afb08fbe9
:100cac0041ea03439b452ad9eb180af1ff3004d2e1
:100cbc009b4502d9aaf102002b44a3eb0b03a4b26f
:100ccc00b3fbf9f209fb123302fb08f844ea0344c4
:100cdc00a04516d92c1902f1ff3303d2a04501d936
:100cec00931e2c44a4eb080443ea004027b124fad9
:100cfc000cf400233c607b603146bde8f08f50461d
:100d0c00dbe71346eee702b9ffdebcf1000f2ed194
:100d1c008b1a01264fea154eaab2b3fbfef8210c32
:100d2c000efb183308fb02f941ea0343994561d9dc
:100d3c00eb1808f1ff3004d2994502d9a8f1020052
:100d4c002b44a3eb0903a4b2b3fbfef10efb11334e
:100d5c004a4344ea0344a2424ed92c1901f1ff3311
:100d6c0003d2a24201d98b1e2c44a41abce7ccf1ad
:100d7c00200e02fa0cf521fa0ef901fa0cf320fa06
:100d8c000efe4eea03034fea154800fa0cf4b9fbc9
:100d9c00f8f11ffa85fe08fb1192180c01fb0ef6f8
:100dac0040ea0242964221d9aa1801f1ff3003d23f
:100dbc00964201d9881e2a44921b9bb2b2fbf8f9c9
:100dcc0008fb192209fb0efe43ea02439e450fd98c
:100ddc00eb1809f1ff3604d29e4502d9a9f102069f
:100dec002b44a3eb0e0346ea004693e70846e3e7e1
:100dfc004e46f6e74046a4e70b46b6e78b4206d9cb
:100e0c00002f7ed00026c7e90001304674e7b3fa04
:100e1c0083fcbcf1000f0fd18b4201d3824209d865
:100e2c00841a61eb030e0120002f6dd0c7e9004e30
:100e3c00002661e76046f7e7ccf1200e03fa0cf3cd
:100e4c0022fa0ef521fa0ef41d4301fa0cf320fae6
:100e5c000ef10b434fea154a00fa0cf6b4fbfaf903
:100e6c001ffa85f80afb19401c0c09fb08f144ea2f
:100e7c000044a14202fa0cf23fd92c1909f1ff30bf
:100e8c0004d2a14202d9a9f102002c44641a9bb2eb
:100e9c00b4fbfaf90afb194409fb08f843ea0441cc
:100eac0088452cd9691809f1ff3304d2884502d939
:100ebc00a9f10203294443ea0040a1eb0801a0fb7d
:100ecc0002894945c2464c4602d306d1464504d256
:100edc00b8eb020a69eb05040138afb1b6eb0a03b3
:100eec0061eb040606fa0efe23fa0cf34eea03033a
:100efc0026fa0cf6c7e900369ae74846c6e74b4691
:0c0f0c00d9e73e463846f7e63e46f5e6db
:020000040000fa
:020000040040ba
:100f180038b5694b1b78092b3ad8dfe803f0050e82
:100f28001d6074919eb0b8c7002001f093fb0228a1
:100f38002ed1614b01221a702ae0002001f08cffab
:100f48005d4b5860b0f1ff3f02d002221a701fe0db
:100f5800594b09221a701be001f066ff022818d8c5
:100f680001f062ff03281ad801f05effe8b901f02a
:100f78005bff022823d8012001f050ff01f054ff45
:100f8800032826d8042001f049ff4b4b03221a708e
:100f980038bd01f03dff494901f040fde0e701f0af
:100fa80037ff474901f03afddee701f031ff4349d9
:100fb80001f1440301224c3101f0a8f9d7e701f00f
:100fc80027ff3e4901f16c0302224c3101f09ef9e2
:100fd800d1e701f01dff3b4901f020fdd2e7364c77
:100fe800606801f065fc354d024605f19c01002062
:100ff80001f08cf90a2205f1c401606801f086f954
:1010080004232370c4e72c4b586801f06bfc0928b3
:10101800bedd294c606801f04bfc02462a490020dd
:1010280001f074f90a222949606801f027fc0a28ae
:1010380003d0214b09221a70aae705222270a7e7dc
:101048002349002001f0eafc1b4c0a221f49606872
:1010580001f062fc062323709ae7174b586801f0e9
:101068008ffc002894d1144c606801f06ffc024694
:101078001849002001f04af90723237088e70e4c2d
:101088001549606801f0cafc0823237080e7012233
:101098000e49094b586801f0f1fb00287ff778af3b
:1010a8000e4a936b83f48073936371e70c490020b5
:1010b80001f02cf96ce700bfd00640206015400015
:1010c80088154000d4154000fc1540009c064020bf
:1010d8003c164000541640007416400000120e40a2
:0410e800bc164000f2
:020000040000fa
:020000040040ba
:1010ec00480640201c00000000000000c802402000
:1010fc008000000000000000480340208000000039
:10110c0000000000d805402038000000000000005e
:10111c00c80340208000000000000000480440206c
:10112c008000000000000000100640203800000085
:10113c0000000000c80440208000000000000000f7
:10114c000000402000020000000000009805402034
:10115c004000000000000000a60640200100000036
:10116c0000000000e0064020040000000000000029
:10117c00a80640200800000000000000e406402003
:10118c000400000000000000b00640200800000031
:10119c0000000000b806402008000000000000001d
:1011ac00640640201c000000000000008006402067
:1011bc001000000000000000c006402008000000e5
:1011cc0000000000c80640200800000000000000dd
:1011dc00900640200c00000000000000000240209f
:1011ec00c800000000000000a7064020010000001d
:1011fc0000000000f4064020010000000000000088
:10120c00d006402008000000000000009c06402092
:10121c000a00000000000000d80640200800000072
:10122c0000000000e8064020040000000000000060
:10123c00480540205000000000000000ec06402053
:10124c000400000000000000f00640200400000034
:10125c000000000000000000000000004444444472
:020000040000fa
:020000040040ba
:10126c00f8b55a4b5b6913f0e0030ad1574b5b6935
:10127c0013f0010f20d1554b5b6913f0020f67d1ae
:10128c00f8bddbb2524a82f83d30504b4ff48072bd
:10129c001a605b6913f0010f05d04c4b9a695a69bf
:1012ac0012f0010ffad14a4b1b6a002bded0484ad0
:1012bc00516a02209847d9e7444e454c46e0226ad1
:1012cc00002a31d0616a38469047a36a0133226bf9
:1012dc00934228bf002327e0a16a3e48425430e0e5
:1012ec0001f09efc236a002b30d094f83c2032b1e4
:1012fc00a26b90422ad3616a0020984726e0a26b29
:10130c00904223d1616a002098471fe0736913f063
:10131c00010fb0d0b569a36a0133226b934228bf89
:10132c000023e26a9a42cad0e26a9a42eed0c5f32e
:10133c000802716811f4003fced0a06a254921f84b
:10134c001020a36294f83430002bc9d10127dde7bb
:10135c001e4d1f4c204e6b6913f0020f90d0e368aa
:10136c00a26893422dd06a6812f4003f03f1010287
:10137c0014bf36f81330f35c2169914298bf0022f8
:10138c00e2606a6812f4003f14bfc3f30803dbb2d7
:10139c00eb61237d002bded001f0b8fc2368002b21
:1013ac00d9d0227f32b1a2699042d4d36168032094
:1013bc009847d0e7a2699042cdd161680320984745
:1013cc00c9e7024b0222da605ae700bf00800240f4
:0c13dc0098054020c8044020000040207c
:020000040000fa
:020000040040ba
:1013e80008b54f4b98474f4b9847eff3108172b6ab
:1013f8004d4ad2f8883043f47003c2f88830bff3fe
:101408004f8fbff36f8f01b962b6484b484a5a6095
:101418009a6812f0010ffbd0444bdb6813f4c07fcd
:1014280013d0444b0c221a60404b434a5a609a68c6
:1014380012f0010ffbd03d4b404a5a609a6812f0f7
:10144800010ffbd03e4b3f4a1a60bff34f8fbff3eb
:101458006f8f354cd4f8903223f00103c4f89032e2
:10146800d4f8943223f00103c4f89432bff34f8fb9
:10147800bff36f8f01f008fd334b23f07f03a360a8
:10148800324b9847636913f4003f12d1bff34f8f73
:10149800bff36f8f0022c4f85022bff34f8fbff302
:1014a8006f8f626942f400326261bff34f8fbff3fe
:1014b8006f8f1d4b5b6913f4803f29d11a4b0022b3
:1014c800c3f88420bff34f8fd3f88030c3f3c90625
:1014d800c3f34e335a0143f6e075134802ea050494
:1014e800334644ea8371c0f86012013bb3f1ff3f11
:1014f800f7d1203a12f1200ff0d1bff34f8f0a4aeb
:10150800536943f480335361bff34f8fbff36f8f39
:101518000f4b98470f4b984701f058fcfee700bf68
:10152800832e4000832e400000ed00e0000c0e40aa
:101538000d00005ae40640200c08005a0c07005a17
:1015480000180e40010000a500004000a92440003a
:08155800832e4000832e4000a9
:020000040000fa
:020000040040ba
:101560002a2a2a54686973206973205541525420ed
:10157000436f6e736f6c6520496e7374616e636543
:1015800020302a2a2a0a0d000a0d5465737420534c
:101590007973204465627567204d65737361676573
:1015a0002100000073747231000000000a0d5379ad
:1015b00073204465627567205072696e742074658b
:1015c00073742025642c202573000000737472321c
:1015d000000000000a0d54686973206d6573736123
:1015e00067652073686f756c64206e6f7420626528
:1015f000207072696e746564210000000a0d4672e5
:10160000656520537061636520696e2052582042e1
:101610007566666572203d20256420627974657365
:10162000000000000a0d456e746572202564206379
:101630006861726163746572733a00000a0d5265e5
:10164000636569766564204368617261637465727d
:10165000733a00000a0d4672656520537061636538
:1016600020696e20545820427566666572203d20c0
:10167000256400000a0d0a0d2a2a2a4563686f2096
:10168000546573742a2a2a200a0d456e74657220e7
:10169000612063686172616374657220616e6420a9
:1016a00069742077696c6c206265206563686f657a
:1016b00064206261636b200a0d0000004150505f9e
:0c16c00053544154455f4552524f5200b4
:020000040000fa
:020000040040ba
:1016cc00f8b5464b5b6913f0e00f09d0434be122b0
:1016dc00da60434bdb691bb1414a116a022098471f
:1016ec003e4b5b6913f0010f05d13c4b5b6913f06a
:1016fc00020f3dd1f8bd394d394c37e0e36913b1d8
:10170c00216a38469847636a0133802b28bf00232f
:10171c0021e001f0d3fae36943b394f8342032b1f9
:10172c00226b904222d3216a002098471ee0226b44
:10173c0090421bd1216a0020984717e06b6913f087
:10174c00010fd2d0ae69636a0133802b28bf00230e
:10175c00a26a9a42d2d0a26a9a42efd0626a214916
:10176c008e54636294f82c30002bd2d10127e5e71c
:10177c001a4d1b4c1c4e19e001f03bfb2368abb11e
:10178c00227e32b16269904210d36168032098477f
:10179c000ce06269904209d161680320984705e02a
:1017ac00ea691343eb61237c002be5d16b6913f0e1
:1017bc00020f9fd0e268a3689a4209d0e3685a1cd2
:1017cc00e260f35ce2687f2aead90022e260e7e794
:1017dc00024b4ff40072da608ce700bf001a0e4027
:0c17ec00d8054020c802402048034020df
:020000040000fa
:020000040040ba
:1017f800f8b5464b5b6913f0e00f09d0434be12283
:10180800da60434bdb691bb1414a116a02209847f1
:101818003e4b5b6913f0010f05d13c4b5b6913f03c
:10182800020f3dd1f8bd394d394c37e0e36913b1aa
:10183800216a38469847636a0133802b28bf002302
:1018480021e001f051fae36943b394f8342032b14e
:10185800226b904222d3216a002098471ee0226b17
:1018680090421bd1216a0020984717e06b6913f05a
:10187800010fd2d0ae69636a0133802b28bf0023e1
:10188800a26a9a42d2d0a26a9a42efd0626a2149e9
:101898008e54636294f82c30002bd2d10127e5e7ef
:1018a8001a4d1b4c1c4e19e001f0abfa2368abb182
:1018b800227e32b16269904210d361680320984752
:1018c8000ce06269904209d161680320984705e0fd
:1018d800ea691343eb61237c002be5d16b6913f0b4
:1018e800020f9fd0e268a3689a4209d0e3685a1ca5
:1018f800e260f35ce2687f2aead90022e260e7e767
:10190800024b4ff40072da608ce700bf000a0e4009
:0c19180010064020c80340204804402076
:020000040000fa
:020000040040ba
:101924002de9f04fd1e901590e68d1f80c808bb044
:10193400002da8bf26f002060393b8bf012516f0b8
:10194400100302900f460493d2e900ab37d05aea51
:101954000b0334d0a9f102033c6916f0080104f129
:10196400ff3405914ff0000108f8041006f002015d
:101974000691039918bf03f1ff335b1b4139012c16
:101984001fdc049b002b4cd1059b1bb1013c202385
:1019940008f804303a690096013a4b46121b08ebea
:1019a4000401029800f01afb029b5b68db0503d577
:1019b4007b689842b8bf18460bb0bde8f08f4b4621
:1019c400cae75aea0b0007d1002d05dc5819002894
:1019d400d7dd06980028d4d00af00f000928d4bf18
:1019e40030305730192904f1ff340ed840f0200c60
:1019f400acf1610cbcf1190f07d8cde9083107929d
:101a040001f0f4f9dde90831079a08f804004fea17
:101a14001a1040ea0b704fea1b1c013d8246e34654
:101a2400ade7d2e900231343aed008eb0403039ad5
:0e1a340003f8012c023c302308f80430a4e72c
:020000040000fa
:020000040040ba
:021a4200fee7bd
:020000040000fa
:020000040040ba
:101a44003d4a116a3d4b0b43136213469a6e12f0e2
:101a5400010ffbd0384a116a394b0b43136213460a
:101a64009a6e12f4803ffbd0334a116a354b0b4314
:101a7400136213469a6e12f4003ffbd02e490b6a90
:101a8400314a1a40314b13430b620b469a6e12f4df
:101a9400003ffbd0284b2e4a9a629a6e12f0020f36
:101aa400fbd02c4b00221a6303f500734ff4710230
:101ab400da619a6e12f0400ffbd01f4a136b43f4a5
:101ac4000053136313469a6e12f0080ffbd01a4aa0
:101ad400136b23f07003136313469a6e12f0080f0e
:101ae400fbd0154a136b23f4407343f480731363e0
:101af40013469a6e12f0080ffbd00f4a136b23f0b3
:101b0400030343f00203136313469a6e12f0080fa3
:101b1400fbd0094b4ff400525a60b32159651a6047
:101b24009a6e12f4005ffbd0034b0b4a1a6141f228
:101b34002812c3f80021704700060e4001ff370049
:101b440000003701080037008fffc8ff200037006e
:0c1b5400013f182000040e40005d8320bb
:020000040000fa
:020000040040ba
:101b600010b4404b0022c3f81421d3f8141141f0f3
:101b70001001c3f814113c490a6760234b6703f551
:101b800000134b60394b0b604ff0ff334b656ff028
:101b900040000866402048666ff02000c1f89000c1
:101ba0002020c1f89400c1f8a0300a614b618a631b
:101bb000c1f8182101f500711020086748671c2042
:101bc00048606ff01c0008604b650b66c1f89030f0
:101bd000c1f8a0300a614b618a63c1f8182101f590
:101be00000710b604b650b66c1f89030c1f8a030f6
:101bf0004ff4807008616ff480744c618863c1f8a1
:101c0000182101f500710a674ff0c060486748600d
:101c10006ff0c06008604b656ff0806008664ff041
:101c2000806048666ff00070c1f890004ff000705f
:101c3000c1f89400c1f8a0300a614b618a63c1f811
:101c4000182101f500710b604b650b66c1f89030ef
:101c5000c1f8a0300a614b618a63c1f818215df8b0
:101c6000044b704700800840000e0e409fffdfffce
:020000040000fa
:020000040040ba
:101c700053ec102bc3f30a512de9f04140f2fd70f3
:101c80004e1e86421d4644d8a1f2ff30002835dba7
:101c9000332831dc264bc0f120084ff0ff3c03fa1b
:101ca00008f2a1f21f412cfa00fc10ee104a4cea97
:101cb000020c23fa01f24cea020c23fa00fe04eab9
:101cc0000c0605ea0e0724ea0c0256ea070425ea88
:101cd0000e030fd0002a73f100040bda4ff48015c5
:101ce00005fa08f425fa01f10c43121925fa00f05f
:101cf00040eb030343ec102bbde8f0819fed0a7b22
:101d0000bfee000b002a73f1000327fe000bbde8b5
:101d1000f0810029f0d10a4603f0004343ec102b78
:101d2000eae700bfaff30080000000000000000001
:041d3000ffff0f00a2
:020000040000fa
:020000040040ba
:101d340010b5264b1c6d264b234043b1234a136533
:101d4400244b1b681bb1234a51682046984714f062
:101d5400010f0cd01d4b01221a65d3f8a4001e4bb1
:101d64001b6823b11c4a516800f07f00984714f0a7
:101d7400100f0cd0154b10221a65d3f8b400164b73
:101d84009b6823b1144ad16800f07f00984714f48b
:101d9400006f09d00d4b4ff400621a650f4b1b689e
:101da40013b10e4a5068984714f4805f0dd0074b66
:101db4004ff480521a65d3f8f400094b1b6823b121
:101dc400074a516800f03f00984710bd00000340e7
:101dd400eee7ffffb806402080064020c8064020fa
:041de400c0064020d5
:020000040000fa
:020000040040ba
:101de800882910b536d012dc812943d003dc80293c
:101df80040d0002010bd82290ed08429f9d119685d
:101e080002b30a1d1a60b1f90020d3171ee0a029f9
:101e18002bd00bdc9029ecd11968073121f0070190
:101e280001f108021a60d1e900230fe0c02901d0ae
:101e3800f029ded11a68111d1960136803600023a8
:101e4800436005e00a1d1a600a880023c0e90023e0
:101e58000120cfe7196822b10a1d1a6091f9002004
:101e6800d3e70a1d1a600a78efe71a68111d19608e
:101e78001268cae719681ab10a1d1a600a68c4e725
:0c1e88000c1d1c600b68c0e90032e1e793
:020000040000fa
:020000040040ba
:101e94002de9f041d2e900230c4686b007465feafb
:101ea400d37820684968a5680590e66841d0524215
:101eb40063eb4303002908db20f002000590b8f12e
:101ec400000f02d1059948072ad5691e05a802907a
:101ed4000a20cde90010204600f0fef8b8f1000f0a
:101ee40002d1059b59071fd5b8f1000f00f1ff304f
:101ef40014bf2d232b2333542269059b0093013aed
:101f04002b46121a3118384600f068f87b68db0556
:101f140003d563689842b8bf184606b0bde8f0819f
:101f24000807d2d42946d1e71a07e5d5013820237a
:081f3400e1e70029c0dac5e76e
:020000040000fa
:020000040040ba
:101f3c002de9f041002945d08c46234b1e69002425
:101f4c00224d1a46dff888e00fe030f81470d5f80f
:101f5c00048018f4003f14bf2ef811700ef80170b5
:101f6c009360631c013463452ad26b6813f400330d
:101f7c0010d0d76891684b1cb34228bf00239f42f6
:101f8c00e3d100f03ffe10b1104b02229a602046c4
:101f9c00bde8f081d2f80c809768791cb14228bf5b
:101fac0019468845edd0035dd5f8048018f4003f40
:101fbc0014bf2ef817300ef807309160631cd1e770
:101fcc001c46dee70c46dce798054020008002400a
:041fdc0000004020a1
:020000040000fa
:020000040040ba
:101fe0002de9ff471d460c9b13f0010906468a4662
:101ff000144601d195420bd822465146304600f096
:10200000e1fda54204d82546284604b0bde8f08786
:102010002f1b102f3a464ff0200128bf1022684690
:10202000b84600f0b7feb8f10f0f11d83b096ff0ba
:102030000f0202fb03726946304600f0c3fdb9f19e
:10204000000fe1d122465146304600f0bbfddbe7f0
:1020500010226946304600f0b5fda8f11008e2e70d
:020000040000fa
:020000040040ba
:10206000842910b523d00cdc812903d0822913d018
:1020700080290bd119680c1d1c600b6803601a6065
:1020800013e0902921d003dc882917d0002010bd4f
:10209000a029efd0c029ece719680c1d1c600b6863
:1020a0000360d1171046c3e900010120efe719686a
:1020b0000c1d1c600b6803601a80f6e719680c1d84
:1020c0001c600b6803601a70efe719680c1d1c6038
:0c20d00009680160d317c1e90023e6e7ae
:020000040000fa
:020000040040ba
:1020dc002de9f84f04460c9f6668d4f80cb02469bf
:1020ec0010463a68013c002502f0020a0b9a0bf8e4
:1020fc000450002e1946b8bf0126012390464fea22
:10210c00e279002c03dcd3b12046bde8f88f50ea0d
:10211c00010209d1721b002a06dc0a9a521b002a02
:10212c00f1ddbaf1000feed042464b4600f0ecfc6c
:10213c00013c134630320bf804200135e1e73b68d3
:08214c0023f010033b60dfe704
:020000040000fa
:020000040040ba
:10215400194ad16821f4e0610904090c174b0b43b7
:10216400d360bff35f8f62b6154be02183f8081389
:102174004ff48070186083f80e134ff48040186099
:1021840083f817134ff40000186083f82313082012
:10219400586083f82c134ff480515960536a43f408
:1021a40080235362536943f010035361536a43f429
:1021b40000335362704700bf00ed00e00000fa05f1
:0421c40000e100e056
:020000040000fa
:020000040040ba
:1021c800f0b50c4649682368a768e56887b0002918
:1021d8000593a4bf23f00203059305ab02930823dc
:1021e800cde900730646d2e900232046fff772ffc7
:1021f800059bd90642bf00f1ff3030232b54059bc5
:102208001a0742bf00f1ff3020232b542269059b97
:102218000093013a3b46121a29183046fff7dcfeb4
:102228007368db0503d563689842b8bf184607b0e2
:02223800f0bdf7
:020000040000fa
:020000040040ba
:02223a00fee7bd
:020000040000fa
:020000040040ba
:10223c0018494ff486730b6050230b604ff40c63fa
:10224c004b6051230b62144b00221a629a62da62c1
:10225c0083f8342083f83c209a6383f83d201a607d
:10226c009a60da601a751a779a614b6813f4003f1a
:10227c0009d0094b40221a634ff480721a61054b46
:10228c00e1229a607047044b80221a634ff400726b
:0c229c001a61f4e7008002409805402021
:020000040000fa
:020000040040ba
:1022a80010b500f063fdfff7c9fbfff755fc4ff4cd
:1022b8000043124a5360b03a536000f04ffd00f0fb
:1022c80069fc00f07dfa00f0edf900f057fa00f033
:1022d80033fa00f051f8fff7adff0949002000f08c
:1022e800affc084c20600849002000f08bf96060c2
:1022f80000f0a6fdfff72aff10bd00bf00190e4031
:0c230800842e4000a80640203c2e40001f
:020000040000fa
:020000040040ba
:102314000eb410b583b00023019350b9144b93f954
:10232400003033b1124b5b681bb1124b1b78012b8d
:1023340004d003b0bde8104003b070470d4b002239
:102344001a7006ab0193059ac8210b4800f07af87d
:10235400431ec62b08d8084900230b54044b5a6863
:10236400546902469868a047024b01221a70e0e7bc
:0c23740090064020a706402000024020f8
:020000040000fa
:020000040040ba
:10238000154b01229a611a46936913f0010ffbd095
:10239000114b9a6942f002029a61104ada612822ce
:1023a000c3f880209a6922f001029a611a46936963
:1023b00013f0010ffbd1084a002393650121d16579
:1023c00007495165074a136053609360d3601361f6
:1023d00053619361704700bf00000340040d01008a
:0823e000ddddc23f6406402070
:020000040000fa
:020000040040ba
:1023e80070b5144b144a0021934206d3134a0025b2
:1023f800d2e9003123b919b970bd03f8011bf3e71d
:10240800946858180c3294b11446834208d111f0dc
:10241800030318bf012303eb910102eb8102e7e7f5
:1024280014f8016b03f8016befe703f8015b8342d3
:10243800fbd1dde70000402000004020ec10400008
:020000040000fa
:020000040040ba
:10244800f0b59bb004460d46164600214c2207a85d
:102458001f4600f09bfc4ff0ff33029303f2031377
:10246800039304b901accde9044555b16a1e002daa
:10247800069208da094b4f221a604ff0ff301bb062
:10248800f0bd2a46f3e7002323703a46314602a8f6
:10249800cde9074400f0e2fbf1e700bff006402079
:020000040000fa
:020000040040ba
:1024a8000e4a38b5002313600d4a0e4c13600e4acd
:1024b8000e4d13600e4a13600e4a13600e4a5362a3
:1024c80013610123936000f0e4fc00f0e2fcac42ed
:1024d80000d338bd54f8043b9847f8e7ec06402091
:1024e8005405402074014000500540207801400008
:0c24f800480540204c05402058054020bd
:020000040000fa
:020000040040ba
:10250400f0b4124ad36a956a0022114fdff844c02e
:102514000e4e08e01cf8034084540133346b9c4293
:1025240098bf00230132ab420bd0914209d97c6899
:1025340014f4003feed03cf8134020f8124001336d
:10254400ece70249cb621046f0bc70479805402086
:0825540000800240c804402091
:020000040000fa
:020000040040ba
:10255c002de9ff41134dd1f80080af88adf80c7018
:10256c0006462868029002aca8798df80e00002a65
:10257c0018bf1446d1e901571a461bb9204600f082
:10258c000bfc0246002d02dbaa4228bf2a46cdf8de
:10259c0000803b4621463046fff71cfd04b0bde8e9
:0825ac00f08100bf7a2e40000f
:020000040000fa
:020000040040ba
:1025b400f0b50c4649682368a668e76887b0002927
:1025c4000593a4bf23f00203059305ab02930a23ea
:1025d400cde900630546d2e900232046fff77cfde0
:1025e4002269059b0093013a3346121a391828468a
:1025f400fff7f4fc6b68db0503d563689842b8bf4a
:06260400184607b0f0bd0e
:020000040000fa
:020000040040ba
:02260a00fee7e9
:020000040000fa
:020000040040ba
:10260c00104b1b7823b901230f4a13700d4a13701a
:10261c00a0b999b10d4b93f9003013b14ff0ff30c5
:10262c00704710b58868094b98604a685a60022454
:10263c001c70536809689847002010bd4ff0ff309c
:10264c00704700bff4064020a706402090064020ab
:020000040000fa
:020000040040ba
:10265c0008b583b2cbb9184603eb43020f4b03eb1f
:10266c0082035a68a2b100eb40000c4b03eb8000d4
:10267c00536a8068984701280cd043b263b1022892
:10268c000cbf01204ff0ff3008bd4ff0ff30fbe7cf
:10269c000020f9e70220f7e70020f5e7900640203c
:020000040000fa
:020000040040ba
:1026ac000f4b012119600f4a5a600f4a9a604ff480
:1026bc004372c3f8942000225a655a664ff4007294
:1026cc00da665966da6603215966da6605215966b7
:1026dc00da6606215966da666b225a61704700bfca
:0c26ec00004006400007842f000005039a
:020000040000fa
:020000040040ba
:1026f80010b50278202a034600f10100f9d0a2f1b2
:1027080009010429f5d92b2a07d02d2a11d1012135
:102718000133013b00200a2403e00021f8e760436d
:10272800801a13f8012f303a092af8d901b9404222
:0627380010bd0021ede7d9
:020000040000fa
:020000040040ba
:02273e00fee7b4
:020000040000fa
:020000040040ba
:102740000e494ff486730b6050230b604ff4006307
:102750004b6051230b620a4b0022da615a629a6283
:1027600083f82c2083f834201a631a609a60da60a8
:102770001a741a765a61e1238b607047001a0e4072
:04278000d805402018
:020000040000fa
:020000040040ba
:102784000e494ff486730b6050230b604ff40063c3
:102794004b6051230b620a4b0022da615a629a623f
:1027a40083f82c2083f834201a631a609a60da6064
:1027b4001a741a765a61e1238b607047000a0e403e
:0427c400100640209b
:020000040000fa
:020000040040ba
:1027c8000d4b01221a600d4a5a600d4a9a604ff467
:1027d8004372c3f8942000225a655a664ff4007277
:1027e800da6608215966da660a215966da6640f21d
:1027f80001525a61704700bf00c003400007842f90
:0428080000000503c4
:020000040000fa
:020000040040ba
:10280c0010b5054c227832b9044b13b10448aff320
:10281c0000800123237010bd4806402000000000fa
:10282c000000000008b5034b1bb103490348aff38c
:10283c00008008bd000000004c0640200000000095
:020000040000fa
:020000040040ba
:10284c0030b50c4a002312f8134024b902eb4303b1
:10285c005b78184630bd01680d78a54209bf02ebc4
:10286c00430301335b78013114bfdbb201600a2be7
:08287c00e9d9eee7802c4000d1
:020000040000fa
:020000040040ba
:1028840060b908b50a4b93f9003053b1084b5b6843
:1028940053b19b6806488068984708bd4ff0ff30e5
:1028a40070474ff0ff30f8e74ff0ff30f5e700bf17
:0428b400900640202a
:020000040000fa
:020000040040ba
:1028b80060b908b50a4b93f9003053b1084b5b680f
:1028c80053b11b69064a9068984708bd4ff0ff301e
:1028d80070474ff0ff30f8e74ff0ff30f5e700bfe3
:0428e80090064020f6
:020000040000fa
:020000040040ba
:1028ec0060b908b50a4b93f9003053b1084b5b68db
:1028fc0053b1db68064a9068984708bd4ff0ff302b
:10290c0070474ff0ff30f8e74ff0ff30f5e700bfae
:04291c0090064020c1
:020000040000fa
:020000040040ba
:1029200060b908b50a4b93f9003053b1084b5b68a6
:1029300053b15b6906488068984708bd4ff0ff3087
:1029400070474ff0ff30f8e74ff0ff30f5e700bf7a
:04295000900640208d
:020000040000fa
:020000040040ba
:1029540060b908b50a4b93f9003053b1084b5b6872
:1029640053b1db69064a9068984708bd4ff0ff30c1
:1029740070474ff0ff30f8e74ff0ff30f5e700bf46
:042984009006402059
:020000040000fa
:020000040040ba
:1029880060b908b50a4b93f9003053b1084b5b683e
:1029980053b19b69064a9068984708bd4ff0ff30cd
:1029a80070474ff0ff30f8e74ff0ff30f5e700bf12
:0429b8009006402025
:020000040000fa
:020000040040ba
:1029bc0098b90b460a494979012902d04ff0ff30ea
:1029cc00704710b511461846054c002363712368f7
:1029dc001b6898470123637110bd4ff0ff3070479f
:0429ec00d8064020a9
:020000040000fa
:020000040040ba
:1029f00098b90b460a494979012902d04ff0ff30b6
:102a0000704710b511461846054c002363712368c2
:102a1000db6898470123637110bd4ff0ff307047aa
:042a2000d806402074
:020000040000fa
:020000040040ba
:102a240090b938b5094b93f9003063b1074b5d6831
:102a34004db10c46084600f0b3f96b6902462146d5
:102a440002488068984738bd704700bf9006402010
:020000040000fa
:020000040040ba
:102a540080b90a4b5b79012b02d04ff0ff307047ed
:102a640010b5064c0023637123681b699847012342
:102a7400637110bd4ff0ff30704700bfd80640208f
:020000040000fa
:020000040040ba
:102a840080b90a4b5b79012b02d04ff0ff307047bd
:102a940010b5064c0023637123685b6998470123d2
:102aa400637110bd4ff0ff30704700bfd80640205f
:020000040000fa
:020000040040ba
:102ab40080b90a4b5b79012b02d04ff0ff3070478d
:102ac40010b5064c0023637123689b689847012363
:102ad400637110bd4ff0ff30704700bfd80640202f
:020000040000fa
:020000040040ba
:102ae40080b90a4b5b79012b02d04ff0ff3070475d
:102af40010b5064c0023637123685b689847012373
:102b0400637110bd4ff0ff30704700bfd8064020fe
:020000040000fa
:020000040040ba
:102b140053b94ab9002908bf00281cbf4ff0ff3140
:102b24004ff0ff3000f0b4b9adf1080c6de904cefc
:102b3400fef792f8ddf804e0dde9022304b0704703
:020000040000fa
:020000040040ba
:102b4400000300002d2d4000bd294000e52a40006f
:102b5400b52a4000f1294000552a4000852a40004a
:0c2b6400992e4000852d40008d2e400071
:020000040000fa
:020000040040ba
:102b7000802910db812901dd83290cd113680733fb
:102b800023f0070303f108011160d3e90023c0e932
:0a2b90000023012070470020704769
:020000040000fa
:020000040040ba
:022b9a00fee754
:020000040000fa
:020000040040ba
:102b9c00074b4ff480721a634ff440425a604ff661
:102bac00ff72da6110225a62024b00221a607047df
:082bbc0000c00040b0064020fb
:020000040000fa
:020000040040ba
:102bc40038b504699442054628bf14462246406934
:102bd40000f0b4f86a6913196b612b691b1b2b6134
:062be4000023135538bd6b
:020000040000fa
:020000040040ba
:022bea00fee704
:020000040000fa
:020000040040ba
:102bec0008b5064b186a10f0140005d0044b1b688e
:102bfc0013b1034a5168984708bd00bf00c000409c
:042c0c00b0064020ae
:020000040000fa
:020000040040ba
:102c1000054bd8689b68984201d8181a7047024a39
:0c2c200012691344181a704798054020f0
:020000040000fa
:020000040040ba
:102c2c00054bd86a9b6a984201d8181a7047024a19
:0c2c3c00126b1344181a704798054020d2
:020000040000fa
:020000040040ba
:102c48004a78044b1a70044b4a885a8002221a7038
:0c2c580000207047a6064020e006402047
:020000040000fa
:020000040040ba
:102c640013b50446019201aafdf77cfe636813f0d4
:0c2c7400100f18bf4ff0ff3002b010bd71
:020000040000fa
:020000040040ba
:102c800068076c094c836a9074a07ac000806888d9
:0c2c900000846c820081286e696c2900b1
:020000040000fa
:020000040040ba
:102c9c00052540002d2c4000052d40003d1f400017
:082cac006b2e4000192d4000c1
:020000040000fa
:020000040040ba
:102cb400034bd8689b68984288bf8033181a7047c2
:042cc400d8054020cf
:020000040000fa
:020000040040ba
:102cc800034a536a906a834238bf8033181a7047a0
:042cd800d8054020bb
:020000040000fa
:020000040040ba
:102cdc00034bd8689b68984288bf8033181a70479a
:042cec00100640206e
:020000040000fa
:020000040040ba
:102cf000034a536a906a834238bf8033181a704778
:042d00001006402059
:020000040000fa
:020000040040ba
:102d040010b5034b1c6bfff78fff013c201a10bd5d
:042d140098054020be
:020000040000fa
:020000040040ba
:102d180010b5034b1c69fff777ff013c201a10bd63
:042d280098054020aa
:020000040000fa
:020000040040ba
:102d2c0028b9034b01225a71096819601a7170474e
:042d3c00d806402055
:020000040000fa
:020000040040ba
:102d400010b500239a4200d110bdcc5cc4540133ad
:022d5000f8e7a2
:020000040000fa
:020000040040ba
:102d5200034611f8012b184603f8012b002af8d17b
:022d62007047b8
:020000040000fa
:020000040040ba
:102d6400024b4ff480721a63704700bf00120e408a
:020000040000fa
:020000040040ba
:102d7400014b024a1a607047000c0e400006000422
:020000040000fa
:020000040040ba
:102d840010b9024b1879704703207047d8064020c9
:020000040000fa
:020000040040ba
:102d940002440346934200d1704703f8011bf9e74c
:020000040000fa
:020000040040ba
:102da40003461a46013311780029fad1101a7047e4
:020000040000fa
:020000040040ba
:102db400494e4600696e66004e414e006e616e00db
:102dc400494e4600696e66004e414e006e616e00cb
:020000040000fa
:020000040040ba
:0e2dd40008b50020fff766fa00f049f8fce7aa
:020000040000fa
:020000040040ba
:0e2de200a0f14103192b98bf40f0200070476c
:020000040000fa
:020000040040ba
:0e2df000a0f16103192b98bf00f05f0070473f
:020000040000fa
:020000040040ba
:0c2dfe0008b5fff758ffc0f17f0008bdca
:020000040000fa
:020000040040ba
:0c2e0a0008b5fff766ffc0f17f0008bdaf
:020000040000fa
:020000040040ba
:022e1600fee7d5
:020000040000fa
:020000040040ba
:0c2e1800014b5888704700bfe0064020c6
:020000040000fa
:020000040040ba
:0c2e2400014b1870704700bfa60640204c
:020000040000fa
:020000040040ba
:0c2e3000014b1878704700bfa606402038
:020000040000fa
:020000040040ba
:0c2e3c00882e4000442b400000000000e5
:020000040000fa
:020000040040ba
:0c2e4800014b00221a707047d006402099
:020000040000fa
:020000040040ba
:0c2e540010b50446fff77bff204610bdc0
:020000040000fa
:020000040040ba
:0a2e6000003018bf01204042704707
:020000040000fa
:020000040040ba
:082e6a0008b5fff7d0fe08bd1a
:020000040000fa
:020000040040ba
:082e720008b5fef750f808bd99
:020000040000fa
:020000040040ba
:072e7a00286e756c6c290045
:020000040000fa
:020000040040ba
:022e8200704797
:020000040000fa
:020000040040ba
:042e84000004000046
:020000040000fa
:020000040040ba
:042e88009c2c40003e
:020000040000fa
:020000040040ba
:042e8c00012070476a
:020000040000fa
:020000040040ba
:042e9000fff7aabae4
:020000040000fa
:020000040040ba
:042e9400704700bfc4
:020000040000fa
:020000040040ba
:022e9800704781
:020000040000fa
:020000040040ba
:022e9a0070477f
:020000040000fa
:02000004d0002a
:0400000002000000fa
:00000001FF
