:020000040000fa
:020000040040ba
:10000000f8ff4520e50c4000651040006b104000f3
:10001000771040007d104000831040000000000079
:10002000000000000000000000000000e710400099
:100030007110400000000000e7104000e710400091
:10004000e7104000e7104000e7104000e7104000d4
:10005000e7104000e7104000e7104000e7104000c4
:10006000e710400000000000e7104000e7104000eb
:10007000e7104000e710400021034000e710400077
:10008000e7104000e7104000e7104000e710400094
:10009000e7104000e7104000e7104000e710400084
:1000a000e7104000e7104000e7104000e710400074
:1000b000e7104000e7104000e7104000e710400064
:1000c000e7104000e7104000e7104000e710400054
:1000d000e7104000e7104000e7104000e710400044
:1000e000e7104000e7104000e7104000e710400034
:1000f000e7104000e7104000e7104000e710400024
:10010000e7104000e7104000e7104000e710400013
:10011000e7104000000000000000000000000000a8
:10012000e7104000e7104000e7104000e7104000f3
:10013000e7104000e710400000000000e71040001a
:10014000e7104000e7104000e7104000e7104000d3
:10015000e7104000e7104000e7104000e7104000c3
:08016000e7104000e710400029
:020000040000fa
:020000040040ba
:10016800f8b500bff8bc08bc9e467047d50f4000e4
:10017800f8b500bff8bc08bc9e467047b10f4000f8
:020000040000fa
:020000040040ba
:1001880080b483b000af0023fb710d4b5b6903f0b3
:10019800e003002b0dd00a4b4ff480721a6002e086
:1001a800074b9b69fb71064b5b6903f00103002b4e
:1001b800f6d100bf0c37bd465df8047b704700bf21
:1001c8000080024080b582b000af0023fb80284b3e
:1001d80093f82c30002b46d022e0264b9b699bb22b
:1001e800c3f30803fb80234b5b6803f40033002b45
:1001f8000bd01f4b9a691e4b1b6a591c1c48016285
:100208005b001344fa881a800ae0194b9a69184b64
:100218001b6a591c164801621344fa88d2b21a7034
:10022800144b5b6903f00103002b05d0104bda690e
:100238000f4b1b6a9a42d0d80d4b1a6a0c4bdb69dc
:100248009a4210d30a4b002283f82c20094be12252
:10025800da60074b5b6a002b05d0054b5b6a044ae2
:10026800926a1046984700bf0837bd4680bd00bf58
:10027800000040200080024080b500af244b1b7d69
:10028800002b42d01fe0234b5b6803f40033002ba4
:100298000ed01f4b1a681e4b9b68591c1c48816066
:1002a8005b0013441b881b4ac3f30803d3610ae0ad
:1002b800174b1a68164b9b68591c154881601344e4
:1002c8001a78144bda61134b5b6903f00203002bb5
:1002d80005d00f4b5a680e4b9b689a42d3d80c4beb
:1002e8009a680b4b5b689a420fd3094b00221a7528
:1002f800084b0222da60064bdb68002b05d0044b62
:10030800db68034a12691046984700bf80bd00bfea
:10031800000040200080024080b582b000af1d4b35
:100328005b6903f0e0037b607b68002b17d07b6878
:10033800dab2194b83f82d20fff722ff154be12283
:10034800da60154b002283f82c20134b5b6a002bd4
:1003580005d0114b5b6a104a926a104698470d4bbc
:100368005b6903f00103002b01d0fff72bff094b5a
:100378005b6903f00203002b07d0064b1b6903f0ef
:100388000203002b01d0fff777ff00bf0837bd46f7
:1003980080bd00bf008002400000402080b400af54
:1003a8001a4b4ff486721a60184b50221a60174b7a
:1003b8004ff40c625a60154b51221a62144b0022fa
:1003c8009a61134b0022da61114b00221a62104b1a
:1003d800002283f82c200e4b00225a620c4b00227c
:1003e8001a600b4b00225a60094b00229a60084b96
:1003f80000221a75064b0022da60054b002283f8aa
:100408002d2000bfbd465df8047b70470080024088
:100418000000402080b483b000af074b93f82d3024
:10042800fb71054b002283f82d20fb7918460c3709
:10043800bd465df8047b70470000402080b489b059
:1004480000af786039600023fb610023bb610023a3
:10045800fb752d4b93f82c30002b03d12a4b1b7db9
:10046800002b01d0002349e07b68002b45d07b6836
:100478001b683b613b68002b01d1244b3b603b6907
:100488001b013a689a4206d33b691b013a68b2fbe2
:10049800f3f3fb6110e03b69db003a689a4209d349
:1004a8003b69db003a68b2fbf3f3fb614ff40023ce
:1004b800bb6101e0002321e0fb69b3f5803f01d374
:1004c80000231be0124b5b68fb60fa68114b13407a
:1004d800fb607b689a687b685b681a437b68db68ab
:1004e8001a43bb691a430a49fb6813434b60084a1d
:1004f800fb699bb213620123fb75fb7d1846243709
:10050800bd465df8047b70470000402080d1f008ac
:10051800008002403fc1f5ff80b584b000af78602d
:1005280039600023fb737b68bb60bb68002b1fd05e
:10053800124b93f82c3083f00103dbb2002b17d059
:10054800fff71efe0d4b002283f82d200b4abb68d7
:1005580093610a4a3b68d361084b00221a62074b31
:10056800012283f82c200123fb73054be1229a60ba
:10057800fb7b18461037bd4680bd00bf00004020f9
:100588000080024080b485b000af786039600023f5
:10059800fb737b68bb60bb68002b42d0244b1b7d80
:1005a80083f00103dbb2002b3bd0214abb68136008
:1005b8001f4a3b6853601e4b00229a601c4b012265
:1005c8001a750123fb731de01a4b5b6803f40033b3
:1005d800002b0dd0164b9b685a1c15498a605b008e
:1005e800ba6813441b88134ac3f30803d36109e0ac
:1005f8000f4b9b685a1c0e498a60ba6813441a78d4
:100608000c4bda610b4b5b6903f00203002b05d03e
:10061800074b9a68064b5b689a42d5d3054b022272
:100628009a60fb7b18461437bd465df8047b70471b
:10063800000040200080024080b400af064b5b6998
:1006480003f40073002b01d0012300e000231846b7
:10065800bd465df8047b70470080024080b483b0db
:1006680000af78603960064a7b68d360044a3b680b
:10067800136100bf0c37bd465df8047b704700bfaf
:100688000000402080b483b000af78603960064a2b
:100698007b685362044a3b68936200bf0c37bd46cf
:1006a8005df8047b704700bf0000402080b400afb5
:1006b800034b1b7d1846bd465df8047b704700bfa1
:1006c8000000402080b400af034b93f82c3018464c
:1006d800bd465df8047b70470000402080b400af41
:1006e8000b4b93f82c30002b0bd00a4be122da602d
:1006f800074b002283f82c200023054a1362044a82
:10070800d36101231846bd465df8047b704700bfde
:10071800000040200080024080b400af034b9b687b
:100728001846bd465df8047b704700bf00004020b6
:1007380080b400af034b1b6a1846bd465df8047bc6
:10074800704700bf0000402080b400af6b4b002210
:10075800c3f81421694bd3f81431684a43f01003e5
:10076800c2f81431664b4ff400125a60644b6ff4b0
:1007780000121a60624b4ff0ff325a65604b6ff4fb
:1007880000621a665e4b4ff400625a665c4b4ff08b
:10079800ff32c3f890205a4b4ff0ff32c3f8a02025
:1007a800574b00221a61564b4ff0ff325a61544b97
:1007b80000229a63524b0022c3f81821514b102291
:1007c8001a67504b10225a674e4b10225a604d4bf5
:1007d8006ff010021a604b4b4ff0ff325a65494bcd
:1007e8004ff0ff321a66474b4ff0ff32c3f89020a4
:1007f800444b4ff0ff32c3f8a020424b00221a614d
:10080800404b4ff0ff325a613e4b00229a633d4bfa
:100818000022c3f818213c4b4ff0ff321a603a4bc4
:100828004ff0ff325a65384b4ff0ff321a66364b9d
:100838004ff0ff32c3f89020334b4ff0ff32c3f82c
:10084800a020314b4ff480721a612f4b6ff48072e5
:100858005a612d4b4ff480729a632b4b0022c3f8d8
:1008680018212a4b4ff0ff321a60284b4ff0ff3205
:100878005a65264b4ff0ff321a66244b4ff0ff3271
:10088800c3f89020214b4ff0ff32c3f8a0201f4b34
:1008980000221a611d4b4ff0ff325a611b4b002298
:1008a8009a631a4b0022c3f81821194b4ff0ff32f4
:1008b8001a60174b4ff0ff325a65154b4ff0ff3255
:1008c8001a66134b4ff0ff32c3f89020104b4ff0cd
:1008d800ff32c3f8a0200e4b00221a610c4b4ff0d8
:1008e800ff325a610a4b00229a63094b0022c3f86f
:1008f800182100bfbd465df8047b704700800840a2
:10090800000e0e4000100e4000120e4000140e4063
:1009180000160e4080b483b000af78607b68db6b54
:1009280018460c37bd465df8047b704780b485b027
:1009380000aff860b9607a60fb689a6bbb68db430c
:1009480002ea0301ba687b681a40fb680a439a63a3
:1009580000bf1437bd465df8047b704780b483b090
:1009680000af78607b689b6b18460c37bd465df816
:10097800047b704780b483b000af786039607b68cf
:100988003a681a6300bf0c37bd465df8047b7047b0
:1009980080b483b000af786039607b683a685a6386
:1009a80000bf0c37bd465df8047b704780b483b048
:1009b80000af786039607b68996b7b683a684a4019
:1009c8009a6300bf0c37bd465df8047b704780b45e
:1009d80083b000af786039607b683a685a6100bfbd
:1009e8000c37bd465df8047b704780b483b000af18
:1009f800786039607b683a681a6100bf0c37bd4679
:100a08005df8047b704700bf80b485b000af7860a4
:100a18007b6803f00703fb600b4bdb68bb60ba68bd
:100a28004ff6ff031340bb60fb681a02bb681a430a
:100a3800064b1343bb60044abb68d36000bf14373e
:100a4800bd465df8047b704700ed00e00000fa0544
:100a580080b483b000af0346fb7197f90730002bd1
:100a68000bdbfb7903f01f02074997f907305b0995
:100a7800012000fa02f241f8232000bf0c37bd46de
:100a88005df8047b704700bf00e100e080b483b0ec
:100a980000af03463960fb7197f90730002b0adb7a
:100aa8003b68dab20c4997f907305201d2b20b44cd
:100ab80083f800230ae03b68dab20849fb7903f0bf
:100ac8000f03043b5201d2b20b441a7600bf0c3715
:100ad800bd465df8047b704700e100e000ed00e0f2
:100ae80080b500af0020fff78fffbff35f8f62b6be
:100af80007210e20fff7caff0e20fff7a9ff0a4bb8
:100b08005b6a094a43f480235362074b5b69064ad0
:100b180043f010035361044b5b6a034a43f4003308
:100b2800536200bf80bd00bf00ed00e080b400af9d
:100b3800bff35f8f62b600bfbd465df8047b7047a8
:100b480080b483b000afeff310833b603b68002ba9
:100b58000cbf01230023fb7172b6bff35f8ffb79d3
:100b680018460c37bd465df8047b704780b483b0e7
:100b780000af0346fb71fb79002b03d0bff35f8ff7
:100b880062b602e072b6bff35f8f00bf0c37bd4696
:100b98005df8047b704700bfbff34f8fbff36f8fc3
:100ba800084bd3f8902222f00102c3f89022d3f820
:100bb800942222f00102c3f89422bff34f8fbff3af
:100bc8006f8f704700ed00e080b483b000af7860ad
:100bd800284b294a5a6000bf264b9b6803f0010343
:100be800002bf9d0234bdb68244a1360234b1b6886
:100bf800db0903f003037a689a4234d07b6803f078
:100c08000203002b03d01e4b0b221a6002e01c4b80
:100c18000c221a601a4b1a6816491a4b13434b6078
:100c280000bf144b9b6803f00103002bf9d07b68cd
:100c380003f00103002b03d0114b0b221a6002e0d2
:100c48000f4b0c221a600e4b1a680a490e4b1343bd
:100c58004b6000bf074b9b6803f00103002bf9d0e2
:100c68000a4b0b4a1a6000bf0c37bd465df8047b7f
:100c7800704700bf000c0e400d00005a9c00402039
:100c8800a00040200008005a0007005a00180e4033
:100c9800010000a580b483b000afeff310833b6080
:100ca8003b687b6072b60b4bd3f88830094a43f433
:100cb8007003c2f88830bff34f8fbff36f8f7b6824
:100cc800002b00d162b600bf0c37bd465df8047b2f
:0c0cd800704700bf00ed00e0704700bf57
:020000040000fa
:020000040040ba
:100ce40008b5304b9847304b9847fff7d5ff0020a5
:100cf400fff76cfffff752ff00f0f1f92b4c2c4b80
:100d040023f07f03a3602b4b9847636913f4003fe0
:100d140012d1bff34f8fbff36f8f0022c4f850225c
:100d2400bff34f8fbff36f8f626942f40032626189
:100d3400bff34f8fbff36f8f1c4b5b6913f4803f7e
:100d440029d11a4b0022c3f88420bff34f8fd3f864
:100d54008030c3f3c905c3f34e335a0143f6e0763a
:100d6400124802ea06042b4644ea8371c0f8601272
:100d7400013bb3f1ff3ff7d1203a12f1200ff0d13c
:100d8400bff34f8f094a536943f480335361bff370
:100d94004f8fbff36f8f084b9847084b984700f06d
:100da40071f9fee7e10c4000e10c400000ed00e0c9
:100db40000004000550f4000e10c4000e10c4000f1
:020000040000fa
:020000040040ba
:100dc40080b400af074b084a9a6200bf054b9b6e84
:100dd40003f00203022bf9d100bfbd465df8047b8a
:100de400704700bf00060e40013f182080b400afda
:100df400174b1b6b164a23f07003136300bf144b8d
:100e04009b6e03f00803082bf9d1114b1b6b23f4e1
:100e140040730f4a43f48073136300bf0c4b9b6e03
:100e240003f00803082bf9d1094b1b6b23f00303d0
:100e3400074a43f00203136300bf054b9b6e03f0a4
:100e44000803082bf9d100bfbd465df8047b704749
:100e540000060e4080b500affff7b2fffff7c6fff4
:100e6400024b4ff457321a6100bf80bd00060e409a
:020000040000fa
:020000040040ba
:100e7400ac0040200400000001000000000000005d
:100e8400800040201c000000000000000000402002
:100e940030000000000000009c004020080000001a
:100ea40000000000b0004020040000000100000029
:100eb400c8104000a400402004000000000000000e
:100ec400300040205000000000000000a800402036
:100ed4000400000000000000b400402004000000f2
:100ee40001000000000000000000000000000000fd
:020000040000fa
:020000040040ba
:100ef40070b5144b144a0021934206d3134a0025bb
:100f0400d2e9003123b919b970bd03f8011bf3e725
:100f1400946858180c3294b11446834208d111f0e5
:100f2400030318bf012303eb910102eb8102e7e7fe
:100f340014f8016b03f8016befe703f8015b8342dc
:100f4400fbd1dde70000402030004020740e40005b
:020000040000fa
:020000040040ba
:100f54000e4a38b5002313600d4a0e4c13600e4a36
:100f64000e4d13600e4a13600e4a13600e4a53620c
:100f740013610123936000f0b5f800f0b3f8ac42bc
:100f840000d338bd54f8043b9847f8e7a800402044
:100f94003c004020740140003800402078014000ab
:0c0fa4003000402034004020400040207d
:020000040000fa
:020000040040ba
:100fb00010b5054c227832b9044b13b10448aff395
:100fc00000800123237010bd80004020000000003d
:100fd0000000000008b5034b1bb103490348aff301
:100fe000008008bd000000008400402000000000d8
:100ff00080b582b000af7860fff72efffff7a8fb47
:10100000084b4ff400425a60074b4ff400425a60bd
:1010100000f04cf8fff7c6f9fff766fd00bf083790
:10102000bd4680bd00190e4050180e4080b485b0fa
:1010300000aff860b9607a604ff0ff33184614379c
:10104000bd465df8047b704780b485b000aff860a2
:10105000b9607a604ff0ff3318461437bd465df82b
:10106000047b704780b400affee780b400affee7ba
:1010700080b400affee780b400affee780b400affd
:10108000fee780b400affee780b500af0020fff7b9
:10109000afff054b1b6804211846fff777fa00bf26
:1010a00000bf00bff5e700bfb000402080b400af34
:1010b000044b4ff480721a6300bfbd465df8047b99
:0810c000704700bf00120e4052
:020000040000fa
:020000040040ba
:1010c80048656c6c6f20576f6c7264210d0a0000c4
:020000040000fa
:020000040040ba
:0a10d80080b483b000af7860fee73b
:020000040000fa
:020000040040ba
:0410e200fff707bf4e
:020000040000fa
:020000040040ba
:0210e600fee723
:020000040000fa
:020000040040ba
:0210e80070474f
:020000040000fa
:02000004d0002a
:0400000002000000fa
:00000001FF
